{
  "address": "0xC946BF8e51E6861BEf8831a458cF174771a777F7",
  "abi": [
    {
      "inputs": [
        {
          "internalType": "uint256",
          "name": "_balance",
          "type": "uint256"
        }
      ],
      "stateMutability": "payable",
      "type": "constructor"
    },
    {
      "inputs": [
        {
          "internalType": "address",
          "name": "",
          "type": "address"
        },
        {
          "internalType": "bytes",
          "name": "",
          "type": "bytes"
        }
      ],
      "name": "getVoiceCredits",
      "outputs": [
        {
          "internalType": "uint256",
          "name": "",
          "type": "uint256"
        }
      ],
      "stateMutability": "view",
      "type": "function"
    }
  ],
  "transactionHash": "0xfa0fd40833d6327d2e292412ac5f4c494d62ac28948b3b235687822fea44e6d1",
  "args": [
    99
  ],
  "numDeployments": 1,
  "solcInputHash": "3ae2ddf96e357baffd6ea2db0ecb1b2d",
  "bytecode": "0x60806040526040516101c63803806101c68339810160408190526100229161002a565b600055610043565b60006020828403121561003c57600080fd5b5051919050565b610174806100526000396000f3fe608060405234801561001057600080fd5b506004361061002b5760003560e01c8063b36543a914610030575b600080fd5b61004661003e36600461006e565b505060005490565b60405190815260200160405180910390f35b634e487b7160e01b600052604160045260246000fd5b6000806040838503121561008157600080fd5b82356001600160a01b038116811461009857600080fd5b9150602083013567ffffffffffffffff808211156100b557600080fd5b818501915085601f8301126100c957600080fd5b8135818111156100db576100db610058565b604051601f8201601f19908116603f0116810190838211818310171561010357610103610058565b8160405282815288602084870101111561011c57600080fd5b826020860160208301376000602084830101528095505050505050925092905056fea26469706673582212205cc0dd92c98345692ca786fa3c5de0b0dbde58ffd330a86d433c200e3f4f579764736f6c63430008110033",
  "devdoc": {
    "kind": "dev",
    "methods": {
      "constructor": {
        "params": {
          "_balance": "the balance to be returned by getVoiceCredits"
        }
      },
      "getVoiceCredits(address,bytes)": {
        "returns": {
          "_0": "balance"
        }
      }
    },
    "title": "ConstantInitialVoiceCreditProxy",
    "version": 1
  },
  "userdoc": {
    "kind": "user",
    "methods": {
      "constructor": {
        "notice": "creates a new ConstantInitialVoiceCreditProxy"
      },
      "getVoiceCredits(address,bytes)": {
        "notice": "Returns the constant balance for any new MACI's voter"
      }
    },
    "notice": "This contract allows to set a constant initial voice credit balance for MACI's voters.",
    "version": 1
  },
  "storageLayout": {
    "storage": [
      {
        "astId": 9793,
        "contract": "contracts/initialVoiceCreditProxy/ConstantInitialVoiceCreditProxy.sol:ConstantInitialVoiceCreditProxy",
        "label": "balance",
        "offset": 0,
        "slot": "0",
        "type": "t_uint256"
      }
    ],
    "types": {
      "t_uint256": {
        "encoding": "inplace",
        "label": "uint256",
        "numberOfBytes": "32"
      }
    }
  }
}