{
  "address": "0x379f55d1c88C41Cb449dC8Cb664fE5a4490e9049",
  "abi": [
    {
      "inputs": [
        {
          "internalType": "uint256",
          "name": "_duration",
          "type": "uint256"
        },
        {
          "components": [
            {
              "internalType": "uint256",
              "name": "maxMessages",
              "type": "uint256"
            },
            {
              "internalType": "uint256",
              "name": "maxVoteOptions",
              "type": "uint256"
            }
          ],
          "internalType": "struct Params.MaxValues",
          "name": "_maxValues",
          "type": "tuple"
        },
        {
          "components": [
            {
              "internalType": "uint8",
              "name": "intStateTreeDepth",
              "type": "uint8"
            },
            {
              "internalType": "uint8",
              "name": "messageTreeSubDepth",
              "type": "uint8"
            },
            {
              "internalType": "uint8",
              "name": "messageTreeDepth",
              "type": "uint8"
            },
            {
              "internalType": "uint8",
              "name": "voteOptionTreeDepth",
              "type": "uint8"
            }
          ],
          "internalType": "struct Params.TreeDepths",
          "name": "_treeDepths",
          "type": "tuple"
        },
        {
          "components": [
            {
              "internalType": "uint256",
              "name": "x",
              "type": "uint256"
            },
            {
              "internalType": "uint256",
              "name": "y",
              "type": "uint256"
            }
          ],
          "internalType": "struct DomainObjs.PubKey",
          "name": "_coordinatorPubKey",
          "type": "tuple"
        },
        {
          "components": [
            {
              "internalType": "contract IMACI",
              "name": "maci",
              "type": "address"
            },
            {
              "internalType": "contract AccQueue",
              "name": "messageAq",
              "type": "address"
            },
            {
              "internalType": "contract TopupCredit",
              "name": "topupCredit",
              "type": "address"
            }
          ],
          "internalType": "struct Params.ExtContracts",
          "name": "_extContracts",
          "type": "tuple"
        }
      ],
      "stateMutability": "payable",
      "type": "constructor"
    },
    {
      "inputs": [],
      "name": "InvalidBatchLength",
      "type": "error"
    },
    {
      "inputs": [],
      "name": "InvalidMessage",
      "type": "error"
    },
    {
      "inputs": [],
      "name": "MaciPubKeyLargerThanSnarkFieldSize",
      "type": "error"
    },
    {
      "inputs": [],
      "name": "PollAlreadyInit",
      "type": "error"
    },
    {
      "inputs": [],
      "name": "StateAqAlreadyMerged",
      "type": "error"
    },
    {
      "inputs": [],
      "name": "StateAqSubtreesNeedMerge",
      "type": "error"
    },
    {
      "inputs": [],
      "name": "TooManyMessages",
      "type": "error"
    },
    {
      "inputs": [],
      "name": "VotingPeriodNotOver",
      "type": "error"
    },
    {
      "inputs": [],
      "name": "VotingPeriodOver",
      "type": "error"
    },
    {
      "anonymous": false,
      "inputs": [
        {
          "indexed": false,
          "internalType": "uint256",
          "name": "_stateRoot",
          "type": "uint256"
        },
        {
          "indexed": false,
          "internalType": "uint256",
          "name": "_numSignups",
          "type": "uint256"
        }
      ],
      "name": "MergeMaciStateAq",
      "type": "event"
    },
    {
      "anonymous": false,
      "inputs": [
        {
          "indexed": false,
          "internalType": "uint256",
          "name": "_numSrQueueOps",
          "type": "uint256"
        }
      ],
      "name": "MergeMaciStateAqSubRoots",
      "type": "event"
    },
    {
      "anonymous": false,
      "inputs": [
        {
          "indexed": false,
          "internalType": "uint256",
          "name": "_messageRoot",
          "type": "uint256"
        }
      ],
      "name": "MergeMessageAq",
      "type": "event"
    },
    {
      "anonymous": false,
      "inputs": [
        {
          "indexed": false,
          "internalType": "uint256",
          "name": "_numSrQueueOps",
          "type": "uint256"
        }
      ],
      "name": "MergeMessageAqSubRoots",
      "type": "event"
    },
    {
      "anonymous": false,
      "inputs": [
        {
          "indexed": true,
          "internalType": "address",
          "name": "previousOwner",
          "type": "address"
        },
        {
          "indexed": true,
          "internalType": "address",
          "name": "newOwner",
          "type": "address"
        }
      ],
      "name": "OwnershipTransferred",
      "type": "event"
    },
    {
      "anonymous": false,
      "inputs": [
        {
          "components": [
            {
              "internalType": "uint256",
              "name": "msgType",
              "type": "uint256"
            },
            {
              "internalType": "uint256[10]",
              "name": "data",
              "type": "uint256[10]"
            }
          ],
          "indexed": false,
          "internalType": "struct DomainObjs.Message",
          "name": "_message",
          "type": "tuple"
        },
        {
          "components": [
            {
              "internalType": "uint256",
              "name": "x",
              "type": "uint256"
            },
            {
              "internalType": "uint256",
              "name": "y",
              "type": "uint256"
            }
          ],
          "indexed": false,
          "internalType": "struct DomainObjs.PubKey",
          "name": "_encPubKey",
          "type": "tuple"
        }
      ],
      "name": "PublishMessage",
      "type": "event"
    },
    {
      "anonymous": false,
      "inputs": [
        {
          "components": [
            {
              "internalType": "uint256",
              "name": "msgType",
              "type": "uint256"
            },
            {
              "internalType": "uint256[10]",
              "name": "data",
              "type": "uint256[10]"
            }
          ],
          "indexed": false,
          "internalType": "struct DomainObjs.Message",
          "name": "_message",
          "type": "tuple"
        }
      ],
      "name": "TopupMessage",
      "type": "event"
    },
    {
      "inputs": [],
      "name": "MESSAGE_DATA_LENGTH",
      "outputs": [
        {
          "internalType": "uint8",
          "name": "",
          "type": "uint8"
        }
      ],
      "stateMutability": "view",
      "type": "function"
    },
    {
      "inputs": [],
      "name": "coordinatorPubKey",
      "outputs": [
        {
          "internalType": "uint256",
          "name": "x",
          "type": "uint256"
        },
        {
          "internalType": "uint256",
          "name": "y",
          "type": "uint256"
        }
      ],
      "stateMutability": "view",
      "type": "function"
    },
    {
      "inputs": [],
      "name": "coordinatorPubKeyHash",
      "outputs": [
        {
          "internalType": "uint256",
          "name": "",
          "type": "uint256"
        }
      ],
      "stateMutability": "view",
      "type": "function"
    },
    {
      "inputs": [],
      "name": "currentSbCommitment",
      "outputs": [
        {
          "internalType": "uint256",
          "name": "",
          "type": "uint256"
        }
      ],
      "stateMutability": "view",
      "type": "function"
    },
    {
      "inputs": [],
      "name": "extContracts",
      "outputs": [
        {
          "internalType": "contract IMACI",
          "name": "maci",
          "type": "address"
        },
        {
          "internalType": "contract AccQueue",
          "name": "messageAq",
          "type": "address"
        },
        {
          "internalType": "contract TopupCredit",
          "name": "topupCredit",
          "type": "address"
        }
      ],
      "stateMutability": "view",
      "type": "function"
    },
    {
      "inputs": [],
      "name": "finished",
      "outputs": [
        {
          "internalType": "bool",
          "name": "",
          "type": "bool"
        }
      ],
      "stateMutability": "view",
      "type": "function"
    },
    {
      "inputs": [],
      "name": "getDeployTimeAndDuration",
      "outputs": [
        {
          "internalType": "uint256",
          "name": "pollDeployTime",
          "type": "uint256"
        },
        {
          "internalType": "uint256",
          "name": "pollDuration",
          "type": "uint256"
        }
      ],
      "stateMutability": "view",
      "type": "function"
    },
    {
      "inputs": [
        {
          "internalType": "uint256[2]",
          "name": "array",
          "type": "uint256[2]"
        }
      ],
      "name": "hash2",
      "outputs": [
        {
          "internalType": "uint256",
          "name": "result",
          "type": "uint256"
        }
      ],
      "stateMutability": "pure",
      "type": "function"
    },
    {
      "inputs": [
        {
          "internalType": "uint256[3]",
          "name": "array",
          "type": "uint256[3]"
        }
      ],
      "name": "hash3",
      "outputs": [
        {
          "internalType": "uint256",
          "name": "result",
          "type": "uint256"
        }
      ],
      "stateMutability": "pure",
      "type": "function"
    },
    {
      "inputs": [
        {
          "internalType": "uint256[4]",
          "name": "array",
          "type": "uint256[4]"
        }
      ],
      "name": "hash4",
      "outputs": [
        {
          "internalType": "uint256",
          "name": "result",
          "type": "uint256"
        }
      ],
      "stateMutability": "pure",
      "type": "function"
    },
    {
      "inputs": [
        {
          "internalType": "uint256[5]",
          "name": "array",
          "type": "uint256[5]"
        }
      ],
      "name": "hash5",
      "outputs": [
        {
          "internalType": "uint256",
          "name": "result",
          "type": "uint256"
        }
      ],
      "stateMutability": "pure",
      "type": "function"
    },
    {
      "inputs": [
        {
          "internalType": "uint256",
          "name": "left",
          "type": "uint256"
        },
        {
          "internalType": "uint256",
          "name": "right",
          "type": "uint256"
        }
      ],
      "name": "hashLeftRight",
      "outputs": [
        {
          "internalType": "uint256",
          "name": "result",
          "type": "uint256"
        }
      ],
      "stateMutability": "pure",
      "type": "function"
    },
    {
      "inputs": [
        {
          "components": [
            {
              "internalType": "uint256",
              "name": "msgType",
              "type": "uint256"
            },
            {
              "internalType": "uint256[10]",
              "name": "data",
              "type": "uint256[10]"
            }
          ],
          "internalType": "struct DomainObjs.Message",
          "name": "_message",
          "type": "tuple"
        },
        {
          "components": [
            {
              "internalType": "uint256",
              "name": "x",
              "type": "uint256"
            },
            {
              "internalType": "uint256",
              "name": "y",
              "type": "uint256"
            }
          ],
          "internalType": "struct DomainObjs.PubKey",
          "name": "_encPubKey",
          "type": "tuple"
        }
      ],
      "name": "hashMessageAndEncPubKey",
      "outputs": [
        {
          "internalType": "uint256",
          "name": "msgHash",
          "type": "uint256"
        }
      ],
      "stateMutability": "pure",
      "type": "function"
    },
    {
      "inputs": [
        {
          "components": [
            {
              "components": [
                {
                  "internalType": "uint256",
                  "name": "x",
                  "type": "uint256"
                },
                {
                  "internalType": "uint256",
                  "name": "y",
                  "type": "uint256"
                }
              ],
              "internalType": "struct DomainObjs.PubKey",
              "name": "pubKey",
              "type": "tuple"
            },
            {
              "internalType": "uint256",
              "name": "voiceCreditBalance",
              "type": "uint256"
            },
            {
              "internalType": "uint256",
              "name": "timestamp",
              "type": "uint256"
            }
          ],
          "internalType": "struct DomainObjs.StateLeaf",
          "name": "_stateLeaf",
          "type": "tuple"
        }
      ],
      "name": "hashStateLeaf",
      "outputs": [
        {
          "internalType": "uint256",
          "name": "ciphertext",
          "type": "uint256"
        }
      ],
      "stateMutability": "pure",
      "type": "function"
    },
    {
      "inputs": [],
      "name": "init",
      "outputs": [],
      "stateMutability": "nonpayable",
      "type": "function"
    },
    {
      "inputs": [],
      "name": "maxValues",
      "outputs": [
        {
          "internalType": "uint256",
          "name": "maxMessages",
          "type": "uint256"
        },
        {
          "internalType": "uint256",
          "name": "maxVoteOptions",
          "type": "uint256"
        }
      ],
      "stateMutability": "view",
      "type": "function"
    },
    {
      "inputs": [
        {
          "internalType": "uint256",
          "name": "_pollId",
          "type": "uint256"
        }
      ],
      "name": "mergeMaciStateAq",
      "outputs": [],
      "stateMutability": "nonpayable",
      "type": "function"
    },
    {
      "inputs": [
        {
          "internalType": "uint256",
          "name": "_numSrQueueOps",
          "type": "uint256"
        },
        {
          "internalType": "uint256",
          "name": "_pollId",
          "type": "uint256"
        }
      ],
      "name": "mergeMaciStateAqSubRoots",
      "outputs": [],
      "stateMutability": "nonpayable",
      "type": "function"
    },
    {
      "inputs": [],
      "name": "mergeMessageAq",
      "outputs": [],
      "stateMutability": "nonpayable",
      "type": "function"
    },
    {
      "inputs": [
        {
          "internalType": "uint256",
          "name": "_numSrQueueOps",
          "type": "uint256"
        }
      ],
      "name": "mergeMessageAqSubRoots",
      "outputs": [],
      "stateMutability": "nonpayable",
      "type": "function"
    },
    {
      "inputs": [],
      "name": "mergedStateRoot",
      "outputs": [
        {
          "internalType": "uint256",
          "name": "",
          "type": "uint256"
        }
      ],
      "stateMutability": "view",
      "type": "function"
    },
    {
      "inputs": [],
      "name": "numMessages",
      "outputs": [
        {
          "internalType": "uint256",
          "name": "",
          "type": "uint256"
        }
      ],
      "stateMutability": "view",
      "type": "function"
    },
    {
      "inputs": [],
      "name": "numSignUpsAndMessages",
      "outputs": [
        {
          "internalType": "uint256",
          "name": "numSUps",
          "type": "uint256"
        },
        {
          "internalType": "uint256",
          "name": "numMsgs",
          "type": "uint256"
        }
      ],
      "stateMutability": "view",
      "type": "function"
    },
    {
      "inputs": [],
      "name": "numSignups",
      "outputs": [
        {
          "internalType": "uint256",
          "name": "",
          "type": "uint256"
        }
      ],
      "stateMutability": "view",
      "type": "function"
    },
    {
      "inputs": [],
      "name": "owner",
      "outputs": [
        {
          "internalType": "address",
          "name": "",
          "type": "address"
        }
      ],
      "stateMutability": "view",
      "type": "function"
    },
    {
      "inputs": [
        {
          "internalType": "uint256[2]",
          "name": "dataToPad",
          "type": "uint256[2]"
        },
        {
          "internalType": "uint256",
          "name": "msgType",
          "type": "uint256"
        }
      ],
      "name": "padAndHashMessage",
      "outputs": [
        {
          "components": [
            {
              "internalType": "uint256",
              "name": "msgType",
              "type": "uint256"
            },
            {
              "internalType": "uint256[10]",
              "name": "data",
              "type": "uint256[10]"
            }
          ],
          "internalType": "struct DomainObjs.Message",
          "name": "message",
          "type": "tuple"
        },
        {
          "components": [
            {
              "internalType": "uint256",
              "name": "x",
              "type": "uint256"
            },
            {
              "internalType": "uint256",
              "name": "y",
              "type": "uint256"
            }
          ],
          "internalType": "struct DomainObjs.PubKey",
          "name": "padKey",
          "type": "tuple"
        },
        {
          "internalType": "uint256",
          "name": "msgHash",
          "type": "uint256"
        }
      ],
      "stateMutability": "pure",
      "type": "function"
    },
    {
      "inputs": [
        {
          "components": [
            {
              "internalType": "uint256",
              "name": "msgType",
              "type": "uint256"
            },
            {
              "internalType": "uint256[10]",
              "name": "data",
              "type": "uint256[10]"
            }
          ],
          "internalType": "struct DomainObjs.Message",
          "name": "_message",
          "type": "tuple"
        },
        {
          "components": [
            {
              "internalType": "uint256",
              "name": "x",
              "type": "uint256"
            },
            {
              "internalType": "uint256",
              "name": "y",
              "type": "uint256"
            }
          ],
          "internalType": "struct DomainObjs.PubKey",
          "name": "_encPubKey",
          "type": "tuple"
        }
      ],
      "name": "publishMessage",
      "outputs": [],
      "stateMutability": "nonpayable",
      "type": "function"
    },
    {
      "inputs": [
        {
          "components": [
            {
              "internalType": "uint256",
              "name": "msgType",
              "type": "uint256"
            },
            {
              "internalType": "uint256[10]",
              "name": "data",
              "type": "uint256[10]"
            }
          ],
          "internalType": "struct DomainObjs.Message[]",
          "name": "_messages",
          "type": "tuple[]"
        },
        {
          "components": [
            {
              "internalType": "uint256",
              "name": "x",
              "type": "uint256"
            },
            {
              "internalType": "uint256",
              "name": "y",
              "type": "uint256"
            }
          ],
          "internalType": "struct DomainObjs.PubKey[]",
          "name": "_encPubKeys",
          "type": "tuple[]"
        }
      ],
      "name": "publishMessageBatch",
      "outputs": [],
      "stateMutability": "nonpayable",
      "type": "function"
    },
    {
      "inputs": [],
      "name": "renounceOwnership",
      "outputs": [],
      "stateMutability": "nonpayable",
      "type": "function"
    },
    {
      "inputs": [
        {
          "internalType": "bool",
          "name": "state",
          "type": "bool"
        }
      ],
      "name": "setFinish",
      "outputs": [],
      "stateMutability": "nonpayable",
      "type": "function"
    },
    {
      "inputs": [
        {
          "internalType": "uint256[]",
          "name": "array",
          "type": "uint256[]"
        }
      ],
      "name": "sha256Hash",
      "outputs": [
        {
          "internalType": "uint256",
          "name": "result",
          "type": "uint256"
        }
      ],
      "stateMutability": "pure",
      "type": "function"
    },
    {
      "inputs": [],
      "name": "stateAqMerged",
      "outputs": [
        {
          "internalType": "bool",
          "name": "",
          "type": "bool"
        }
      ],
      "stateMutability": "view",
      "type": "function"
    },
    {
      "inputs": [
        {
          "internalType": "uint256",
          "name": "stateIndex",
          "type": "uint256"
        },
        {
          "internalType": "uint256",
          "name": "amount",
          "type": "uint256"
        }
      ],
      "name": "topup",
      "outputs": [],
      "stateMutability": "nonpayable",
      "type": "function"
    },
    {
      "inputs": [
        {
          "internalType": "address",
          "name": "newOwner",
          "type": "address"
        }
      ],
      "name": "transferOwnership",
      "outputs": [],
      "stateMutability": "nonpayable",
      "type": "function"
    },
    {
      "inputs": [],
      "name": "treeDepths",
      "outputs": [
        {
          "internalType": "uint8",
          "name": "intStateTreeDepth",
          "type": "uint8"
        },
        {
          "internalType": "uint8",
          "name": "messageTreeSubDepth",
          "type": "uint8"
        },
        {
          "internalType": "uint8",
          "name": "messageTreeDepth",
          "type": "uint8"
        },
        {
          "internalType": "uint8",
          "name": "voteOptionTreeDepth",
          "type": "uint8"
        }
      ],
      "stateMutability": "view",
      "type": "function"
    }
  ],
  "transactionHash": "0x10588828b5b3d2b4a53b9ce928c7a2f51fda7c3c5b8f1184d7f1d6c5ad71ba58",
  "args": [
    60000,
    {
      "maxMessages": 100,
      "maxVoteOptions": 200
    },
    {
      "intStateTreeDepth": 2,
      "messageTreeSubDepth": 1,
      "messageTreeDepth": 2,
      "voteOptionTreeDepth": 2
    },
    {
      "x": "12576093200411987947686257994143214436501205651693395648371401820630112038269",
      "y": "19289738249397520911803584405588619261458344140979840364938137196359352374305"
    },
    {
      "maci": "0xDCB5008c6074bEB53317027534431b2c75B77eD4",
      "messageAq": "0xe63D576Dbff811650F9823a63Ed05DEfE5f43533",
      "topupCredit": "0xe63D576Dbff811650F9823a63Ed05DEfE5f43533"
    }
  ],
  "numDeployments": 1,
  "solcInputHash": "227c018199e049294919322249979298",
  "bytecode": "0x60e060408190526014805460ff1916905562002567388190039081908339810160408190526200002f9162000459565b6200003a3362000246565b7f0e8c0be063e1dee5a8a9df19f0715acdfac6b7260f41d6c3769166cac049db776001557f142181123bdf04edceb703cda229ba08b79092aad0eada9552d51966ee46229a6002557f20c99bb8b43cd63ee07ee8f33b445888ff638f67a7019b6d50036352a0e5e7bd6003557f1a999f92e772c387eb618ff2864256f26f268addaca43c88af7f8fab56ee19e76004557f0b81b4da4b6b26de7e3997b3c2eb68abb7573206ae5de5b964de736ee40022ab60055581517f30644e72e131a029b85045b68181585d2833e84879b9709143e1f593f00000011115806200014357507f30644e72e131a029b85045b68181585d2833e84879b9709143e1f593f0000001826020015110155b1562000162576040516354be831760e11b815260040160405180910390fd5b81516007819055602083015160088190556200017f919062000296565b6080528051601180546001600160a01b039283166001600160a01b03199182161790915560208084015160128054918516918416919091179055604093840151601380549190941692169190911790915560c0959095528351600e5592840151600f5550805160108054948301519383015160609093015160ff90811663010000000263ff0000001994821662010000029490941663ffff0000199582166101000261ffff1990971691909316179490941792909216919091171790554260a052620005bb565b600080546001600160a01b038381166001600160a01b0319831681178455604051919092169283917f8be0079c531659141344cd1fd0a4f28419497f9722a3daafe3b4186f6b6457e09190a35050565b6000620002a262000345565b83815260208101839052620002b781620002bf565b949350505050565b6040516314d2f97b60e11b815260009073314773c7C42587d72801A47687CebD789b8BC363906329a5f2f690620002fb9085906004016200056e565b602060405180830381865af415801562000319573d6000803e3d6000fd5b505050506040513d601f19601f820116820180604052508101906200033f9190620005a1565b92915050565b60405180604001604052806002906020820280368337509192915050565b604051608081016001600160401b03811182821017156200039457634e487b7160e01b600052604160045260246000fd5b60405290565b604051606081016001600160401b03811182821017156200039457634e487b7160e01b600052604160045260246000fd5b600060408284031215620003de57600080fd5b604080519081016001600160401b03811182821017156200040f57634e487b7160e01b600052604160045260246000fd5b604052825181526020928301519281019290925250919050565b805160ff811681146200043b57600080fd5b919050565b6001600160a01b03811681146200045657600080fd5b50565b60008060008060008587036101808112156200047457600080fd5b86519550620004878860208901620003cb565b94506080605f19820112156200049c57600080fd5b620004a662000363565b620004b46060890162000429565b8152620004c46080890162000429565b6020820152620004d760a0890162000429565b6040820152620004ea60c0890162000429565b60608201529350620005008860e08901620003cb565b9250606061011f19820112156200051657600080fd5b50620005216200039a565b610120870151620005328162000440565b8152610140870151620005458162000440565b60208201526101608701516200055b8162000440565b6040820152949793965091945092919050565b60408101818360005b60028110156200059857815183526020928301929091019060010162000577565b50505092915050565b600060208284031215620005b457600080fd5b5051919050565b60805160a05160c051611f526200061560003960006102fd0152600081816102dc0152818161057e01528181610816015281816109ec01528181610e0701528181610f2d0152611055015260006103ef0152611f526000f3fe608060405234801561001057600080fd5b50600436106102105760003560e01c8063715018a611610125578063ae93a212116100ad578063bef4876b1161007c578063bef4876b14610535578063c17268d914610542578063e1c7392a1461054b578063f2fde38b14610553578063fba630f21461056657600080fd5b8063ae93a212146104a8578063b5f38c81146104bb578063bc14ee2b146104d8578063bea140b31461052257600080fd5b80638aa0ba92116100f45780638aa0ba92146103ea5780638da5cb5b146104115780639c9717291461042c5780639cfced971461043f578063ac98e5df1461045257600080fd5b8063715018a6146103a95780637296aaea146103b15780637d0a81c8146103c457806386f3c3f7146103d757600080fd5b80633dfb88b2116101a857806358bfc3791161017757806358bfc3791461034d5780635bb93995146103605780635d5909dd1461037357806362a361bb1461037c578063683f3dc31461038f57600080fd5b80633dfb88b2146102c75780634909229f146102da5780634f367f0f1461032157806354dab1771461032c57600080fd5b8063167fd483116101e4578063167fd48314610280578063184ff47f1461029357806331e766a5146102a6578063394b78a2146102b457600080fd5b8062329f2f146102155780630396a0ce1461021f57806306912d3c146102475780630f4cf69214610269575b600080fd5b61021d61056f565b005b600e54600f5461022d919082565b604080519283526020830191909152015b60405180910390f35b61025a610255366004611756565b610688565b60405161023e939291906117ae565b610272600c5481565b60405190815260200161023e565b61027261028e36600461189f565b610736565b61021d6102a13660046118d6565b61080f565b60075460085461022d919082565b61021d6102c23660046118f8565b6109e5565b6102726102d536600461193b565b610ba5565b7f00000000000000000000000000000000000000000000000000000000000000007f000000000000000000000000000000000000000000000000000000000000000061022d565b600d54600c5461022d565b61021d61033a3660046119a2565b6014805460ff1916911515919091179055565b61027261035b3660046119bf565b610c26565b61027261036e3660046118d6565b610cc0565b610272600d5481565b61027261038a366004611a65565b610ce5565b610397600a81565b60405160ff909116815260200161023e565b61021d610d1f565b61021d6103bf366004611a81565b610d33565b6102726103d2366004611b4a565b610db8565b61021d6103e53660046118d6565b610df8565b6102727f000000000000000000000000000000000000000000000000000000000000000081565b6000546040516001600160a01b03909116815260200161023e565b61021d61043a366004611bac565b610f1e565b61027261044d366004611bc5565b61100c565b60105461047b9060ff808216916101008104821691620100008204811691630100000090041684565b6040805160ff9586168152938516602085015291841691830191909152909116606082015260800161023e565b61021d6104b6366004611bac565b611046565b600a546104c89060ff1681565b604051901515815260200161023e565b6011546012546013546104f8926001600160a01b03908116928116911683565b604080516001600160a01b039485168152928416602084015292169181019190915260600161023e565b610272610530366004611c1e565b611334565b6014546104c89060ff1681565b610272600b5481565b61021d61136e565b61021d610561366004611c8c565b611498565b61027260095481565b610577611516565b60006105a37f000000000000000000000000000000000000000000000000000000000000000042611cbf565b60145490915060ff1615156000036105ce57604051630931513d60e11b815260040160405180910390fd5b6012546010546040516324a47aeb60e01b81526201000090910460ff1660048201526000916001600160a01b0316906324a47aeb906024016020604051808303816000875af1158015610625573d6000803e3d6000fd5b505050506040513d601f19601f820116820180604052508101906106499190611cd2565b90507fc5624680ab5d50c84507f9e0dc2032163de2bda906ab8a661a53dd4d43bd5dc78160405161067c91815260200190565b60405180910390a15050565b6106906115c0565b604080518082019091526000808252602082015260006106ae6115df565b85518152602080870151828201526040805180820182527f171e826ad4a870fd925e0bf0e87884e70e080879c2205ef10114f28a3b6f6dd781527f2bd407d897fbbca9f88adfd2d15252e69de8c1564eb4d3d27162e259172f1a1d8184015281518083019092528782529181018390529450925061072c8484610736565b9150509250925092565b60006107406115fe565b6020848101805151835280518201519183019190915280516040908101519083015280516060908101519083015251608090810151908201526107816115fe565b6020858101805160a0908101518452815160c0015184840152815160e001516040808601919091528251610100015160608601529151610120015160808501528151908101909152865181526108069181016107dc8561100c565b81526020016107ea8461100c565b815260200186600001518152602001866020015181525061100c565b95945050505050565b600061083b7f000000000000000000000000000000000000000000000000000000000000000042611cbf565b60145490915060ff1615156001036108665760405163148fb9a960e31b815260040160405180910390fd5b600e54600c541061088a57604051631ec0b2f760e01b815260040160405180910390fd5b600c805460010190556013546040516323b872dd60e01b8152336004820152306024820152604481018490526001600160a01b03909116906323b872dd906064016020604051808303816000875af11580156108ea573d6000803e3d6000fd5b505050506040513d601f19601f8201168201806040525081019061090e9190611d01565b506040805180820190915283815260208101839052600080610931836002610688565b601254604051631ffc735d60e01b8152600481018390529395509093506001600160a01b031691631ffc735d91506024016020604051808303816000875af1158015610981573d6000803e3d6000fd5b505050506040513d601f19601f820116820180604052508101906109a59190611cd2565b507f935afc7bb7cc33eb3e24e20dcfc75f5b21fa58e9c82cca06435238efaf9a3a58826040516109d59190611d1e565b60405180910390a1505050505050565b6000610a117f000000000000000000000000000000000000000000000000000000000000000042611cbf565b60145490915060ff161515600103610a3c5760405163148fb9a960e31b815260040160405180910390fd5b600e54600c5410610a6057604051631ec0b2f760e01b815260040160405180910390fd5b7f30644e72e131a029b85045b68181585d2833e84879b9709143e1f593f00000018235101580610ab457507f30644e72e131a029b85045b68181585d2833e84879b9709143e1f593f0000001826020013510155b15610ad2576040516354be831760e11b815260040160405180910390fd5b600c8054600190810190915583526000610af58461028e36869003860186611d2d565b601254604051631ffc735d60e01b8152600481018390529192506001600160a01b031690631ffc735d906024016020604051808303816000875af1158015610b41573d6000803e3d6000fd5b505050506040513d601f19601f82011682018060405250810190610b659190611cd2565b507fe2067f06dd7b8159b21a5490f8663f6bb031d9b35ed6d298b5489674cb9cda4b8484604051610b97929190611d49565b60405180910390a150505050565b60405163248f667760e01b815260009073fad3e45dfe1f6e73fdd5e9426cc69752698337af9063248f667790610bdf908590600401611d72565b602060405180830381865af4158015610bfc573d6000803e3d6000fd5b505050506040513d601f19601f82011682018060405250810190610c209190611cd2565b92915050565b60007f30644e72e131a029b85045b68181585d2833e84879b9709143e1f593f0000001600283604051602001610c5c9190611da3565b60408051601f1981840301815290829052610c7691611dd9565b602060405180830381855afa158015610c93573d6000803e3d6000fd5b5050506040513d601f19601f82011682018060405250810190610cb69190611cd2565b610c209190611e08565b6000610cca61161c565b83815260208101839052610cdd81610ce5565b949350505050565b6040516314d2f97b60e11b815260009073314773c7C42587d72801A47687CebD789b8BC363906329a5f2f690610bdf908590600401611e2a565b610d27611516565b610d316000611570565b565b828114610d535760405163ca3487f760e01b815260040160405180910390fd5b8260005b81811015610db057610da8868683818110610d7457610d74611ceb565b90506101600201803603810190610d8b9190611e52565b858584818110610d9d57610d9d611ceb565b9050604002016109e5565b600101610d57565b505050505050565b6000610dc261163a565b8251518152825160209081015181830152830151816002602002015260408301516060820152610df181610ba5565b9392505050565b610e00611516565b6000610e2c7f000000000000000000000000000000000000000000000000000000000000000042611cbf565b60145490915060ff161515600003610e5757604051630931513d60e11b815260040160405180910390fd5b600a5460ff1615610e7b5760405163084ef7b960e41b815260040160405180910390fd5b60115460405163cfa1fa0360e01b815260048101859052602481018490526001600160a01b039091169063cfa1fa0390604401600060405180830381600087803b158015610ec857600080fd5b505af1158015610edc573d6000803e3d6000fd5b505050507fbe5eae95ff0a9a2779506ae62da06dda1e349311d3f2b6ceb990ea42b6a5f20b83604051610f1191815260200190565b60405180910390a1505050565b610f26611516565b6000610f527f000000000000000000000000000000000000000000000000000000000000000042611cbf565b60145490915060ff161515600003610f7d57604051630931513d60e11b815260040160405180910390fd5b60125460405163c15da65b60e01b8152600481018490526001600160a01b039091169063c15da65b90602401600060405180830381600087803b158015610fc357600080fd5b505af1158015610fd7573d6000803e3d6000fd5b505050507f1245b881cb30fdad22b2f9fde2d5c2a3605bbdf272d5e8a2235d8c9e81aba2ce8260405161067c91815260200190565b604051630926f44b60e31b815260009073E4F8D0de10deE47C15e76F6B6760B689595a3cF090634937a25890610bdf908590600401611e6f565b61104e611516565b600061107a7f000000000000000000000000000000000000000000000000000000000000000042611cbf565b60145490915060ff1615156000036110a557604051630931513d60e11b815260040160405180910390fd5b600a5460ff16156110c95760405163084ef7b960e41b815260040160405180910390fd5b600a805460ff1916600117905560115460408051630c0775ff60e31b815290516001600160a01b039092169163603baff8916004808201926020929091908290030181865afa158015611120573d6000803e3d6000fd5b505050506040513d601f19601f820116820180604052508101906111449190611e97565b6001600160a01b031663b6a64acd6040518163ffffffff1660e01b8152600401602060405180830381865afa158015611181573d6000803e3d6000fd5b505050506040513d601f19601f820116820180604052508101906111a59190611d01565b6111c157604051624a03c360e31b815260040160405180910390fd5b60115460405163dd0982a360e01b8152600481018490526001600160a01b039091169063dd0982a3906024016020604051808303816000875af115801561120c573d6000803e3d6000fd5b505050506040513d601f19601f820116820180604052508101906112309190611cd2565b60095561123b611658565b600954815260105460019061125b9082906301000000900460ff16611eb4565b60ff166005811061126e5761126e611ceb565b015460208201526000604082015261128581611334565b600b556011546040805163122db15360e01b815290516001600160a01b039092169163122db153916004808201926020929091908290030181865afa1580156112d2573d6000803e3d6000fd5b505050506040513d601f19601f820116820180604052508101906112f69190611cd2565b600d8190556009546040517fa80928657383ff9d374f1409cf51e7460a64472b6baeb5ded1199830c15bae0192610f11928252602082015260400190565b6040516304b98e1d60e31b8152600090730195247B6B2b78219A78865F85350543562eadbc906325cc70e890610bdf908590600401611ecd565b60065460ff1615611392576040516342a2e18d60e01b815260040160405180910390fd5b6006805460ff19166001908117909155600c805482019055604080518082019091527f12817f4161f2f5ded33f26c55735a77e80e4f8975483c8c2704745128417f71181526000602082018190529091819081906113f1908590610688565b601254604051631ffc735d60e01b81526004810183905293965091945092506001600160a01b031690631ffc735d906024016020604051808303816000875af1158015611442573d6000803e3d6000fd5b505050506040513d601f19601f820116820180604052508101906114669190611cd2565b507fe2067f06dd7b8159b21a5490f8663f6bb031d9b35ed6d298b5489674cb9cda4b8383604051610b97929190611ef5565b6114a0611516565b6001600160a01b03811661150a5760405162461bcd60e51b815260206004820152602660248201527f4f776e61626c653a206e6577206f776e657220697320746865207a65726f206160448201526564647265737360d01b60648201526084015b60405180910390fd5b61151381611570565b50565b6000546001600160a01b03163314610d315760405162461bcd60e51b815260206004820181905260248201527f4f776e61626c653a2063616c6c6572206973206e6f7420746865206f776e65726044820152606401611501565b600080546001600160a01b038381166001600160a01b0319831681178455604051919092169283917f8be0079c531659141344cd1fd0a4f28419497f9722a3daafe3b4186f6b6457e09190a35050565b6040518060400160405280600081526020016115da6115df565b905290565b604051806101400160405280600a906020820280368337509192915050565b6040518060a001604052806005906020820280368337509192915050565b60405180604001604052806002906020820280368337509192915050565b60405180608001604052806004906020820280368337509192915050565b60405180606001604052806003906020820280368337509192915050565b634e487b7160e01b600052604160045260246000fd5b6040805190810167ffffffffffffffff811182821017156116af576116af611676565b60405290565b604051601f8201601f1916810167ffffffffffffffff811182821017156116de576116de611676565b604052919050565b600082601f8301126116f757600080fd5b6040516040810181811067ffffffffffffffff8211171561171a5761171a611676565b806040525080604084018581111561173157600080fd5b845b8181101561174b578035835260209283019201611733565b509195945050505050565b6000806060838503121561176957600080fd5b61177384846116e6565b946040939093013593505050565b8051825260208082015181840160005b600a811015610db057825182529183019190830190600101611791565b6101c081016117bd8286611781565b83516101608301526020909301516101808201526101a00152919050565b60006101608083850312156117ef57600080fd5b6117f761168c565b915082358252602084603f85011261180e57600080fd5b604051610140810181811067ffffffffffffffff8211171561183257611832611676565b60405291840191808684111561184757600080fd5b8286015b84811015611862578035825290830190830161184b565b5050908301525092915050565b60006040828403121561188157600080fd5b61188961168c565b9050813581526020820135602082015292915050565b6000806101a083850312156118b357600080fd5b6118bd84846117db565b91506118cd84610160850161186f565b90509250929050565b600080604083850312156118e957600080fd5b50508035926020909101359150565b6000808284036101a081121561190d57600080fd5b61191785856117db565b9250604061015f198201121561192c57600080fd5b50610160830190509250929050565b60006080828403121561194d57600080fd5b82601f83011261195c57600080fd5b6040516080810181811067ffffffffffffffff8211171561197f5761197f611676565b60405280608084018581111561173157600080fd5b801515811461151357600080fd5b6000602082840312156119b457600080fd5b8135610df181611994565b600060208083850312156119d257600080fd5b823567ffffffffffffffff808211156119ea57600080fd5b818501915085601f8301126119fe57600080fd5b813581811115611a1057611a10611676565b8060051b9150611a218483016116b5565b8181529183018401918481019088841115611a3b57600080fd5b938501935b83851015611a5957843582529385019390850190611a40565b98975050505050505050565b600060408284031215611a7757600080fd5b610df183836116e6565b60008060008060408587031215611a9757600080fd5b843567ffffffffffffffff80821115611aaf57600080fd5b818701915087601f830112611ac357600080fd5b813581811115611ad257600080fd5b88602061016083028501011115611ae857600080fd5b602092830196509450908601359080821115611b0357600080fd5b818701915087601f830112611b1757600080fd5b813581811115611b2657600080fd5b8860208260061b8501011115611b3b57600080fd5b95989497505060200194505050565b600060808284031215611b5c57600080fd5b6040516060810181811067ffffffffffffffff82111715611b7f57611b7f611676565b604052611b8c848461186f565b815260408301356020820152606083013560408201528091505092915050565b600060208284031215611bbe57600080fd5b5035919050565b600060a08284031215611bd757600080fd5b82601f830112611be657600080fd5b60405160a0810181811067ffffffffffffffff82111715611c0957611c09611676565b6040528060a084018581111561173157600080fd5b600060608284031215611c3057600080fd5b82601f830112611c3f57600080fd5b6040516060810181811067ffffffffffffffff82111715611c6257611c62611676565b60405280606084018581111561173157600080fd5b6001600160a01b038116811461151357600080fd5b600060208284031215611c9e57600080fd5b8135610df181611c77565b634e487b7160e01b600052601160045260246000fd5b81810381811115610c2057610c20611ca9565b600060208284031215611ce457600080fd5b5051919050565b634e487b7160e01b600052603260045260246000fd5b600060208284031215611d1357600080fd5b8151610df181611994565b6101608101610c208284611781565b600060408284031215611d3f57600080fd5b610df1838361186f565b6101a08101611d588285611781565b823561016083015260208301356101808301529392505050565b60808101818360005b6004811015611d9a578151835260209283019290910190600101611d7b565b50505092915050565b815160009082906020808601845b83811015611dcd57815185529382019390820190600101611db1565b50929695505050505050565b6000825160005b81811015611dfa5760208186018101518583015201611de0565b506000920191825250919050565b600082611e2557634e487b7160e01b600052601260045260246000fd5b500690565b60408101818360005b6002811015611d9a578151835260209283019290910190600101611e33565b60006101608284031215611e6557600080fd5b610df183836117db565b60a08101818360005b6005811015611d9a578151835260209283019290910190600101611e78565b600060208284031215611ea957600080fd5b8151610df181611c77565b60ff8281168282160390811115610c2057610c20611ca9565b60608101818360005b6003811015611d9a578151835260209283019290910190600101611ed6565b6101a08101611f048285611781565b82516101608301526020830151610180830152610df156fea2646970667358221220cb10500d4d048caa02805f17de02b36f8a9e074187c8de02da41b5ee4942d6c764736f6c63430008110033",
  "deployedBytecode": "0x608060405234801561001057600080fd5b50600436106102105760003560e01c8063715018a611610125578063ae93a212116100ad578063bef4876b1161007c578063bef4876b14610535578063c17268d914610542578063e1c7392a1461054b578063f2fde38b14610553578063fba630f21461056657600080fd5b8063ae93a212146104a8578063b5f38c81146104bb578063bc14ee2b146104d8578063bea140b31461052257600080fd5b80638aa0ba92116100f45780638aa0ba92146103ea5780638da5cb5b146104115780639c9717291461042c5780639cfced971461043f578063ac98e5df1461045257600080fd5b8063715018a6146103a95780637296aaea146103b15780637d0a81c8146103c457806386f3c3f7146103d757600080fd5b80633dfb88b2116101a857806358bfc3791161017757806358bfc3791461034d5780635bb93995146103605780635d5909dd1461037357806362a361bb1461037c578063683f3dc31461038f57600080fd5b80633dfb88b2146102c75780634909229f146102da5780634f367f0f1461032157806354dab1771461032c57600080fd5b8063167fd483116101e4578063167fd48314610280578063184ff47f1461029357806331e766a5146102a6578063394b78a2146102b457600080fd5b8062329f2f146102155780630396a0ce1461021f57806306912d3c146102475780630f4cf69214610269575b600080fd5b61021d61056f565b005b600e54600f5461022d919082565b604080519283526020830191909152015b60405180910390f35b61025a610255366004611756565b610688565b60405161023e939291906117ae565b610272600c5481565b60405190815260200161023e565b61027261028e36600461189f565b610736565b61021d6102a13660046118d6565b61080f565b60075460085461022d919082565b61021d6102c23660046118f8565b6109e5565b6102726102d536600461193b565b610ba5565b7f00000000000000000000000000000000000000000000000000000000000000007f000000000000000000000000000000000000000000000000000000000000000061022d565b600d54600c5461022d565b61021d61033a3660046119a2565b6014805460ff1916911515919091179055565b61027261035b3660046119bf565b610c26565b61027261036e3660046118d6565b610cc0565b610272600d5481565b61027261038a366004611a65565b610ce5565b610397600a81565b60405160ff909116815260200161023e565b61021d610d1f565b61021d6103bf366004611a81565b610d33565b6102726103d2366004611b4a565b610db8565b61021d6103e53660046118d6565b610df8565b6102727f000000000000000000000000000000000000000000000000000000000000000081565b6000546040516001600160a01b03909116815260200161023e565b61021d61043a366004611bac565b610f1e565b61027261044d366004611bc5565b61100c565b60105461047b9060ff808216916101008104821691620100008204811691630100000090041684565b6040805160ff9586168152938516602085015291841691830191909152909116606082015260800161023e565b61021d6104b6366004611bac565b611046565b600a546104c89060ff1681565b604051901515815260200161023e565b6011546012546013546104f8926001600160a01b03908116928116911683565b604080516001600160a01b039485168152928416602084015292169181019190915260600161023e565b610272610530366004611c1e565b611334565b6014546104c89060ff1681565b610272600b5481565b61021d61136e565b61021d610561366004611c8c565b611498565b61027260095481565b610577611516565b60006105a37f000000000000000000000000000000000000000000000000000000000000000042611cbf565b60145490915060ff1615156000036105ce57604051630931513d60e11b815260040160405180910390fd5b6012546010546040516324a47aeb60e01b81526201000090910460ff1660048201526000916001600160a01b0316906324a47aeb906024016020604051808303816000875af1158015610625573d6000803e3d6000fd5b505050506040513d601f19601f820116820180604052508101906106499190611cd2565b90507fc5624680ab5d50c84507f9e0dc2032163de2bda906ab8a661a53dd4d43bd5dc78160405161067c91815260200190565b60405180910390a15050565b6106906115c0565b604080518082019091526000808252602082015260006106ae6115df565b85518152602080870151828201526040805180820182527f171e826ad4a870fd925e0bf0e87884e70e080879c2205ef10114f28a3b6f6dd781527f2bd407d897fbbca9f88adfd2d15252e69de8c1564eb4d3d27162e259172f1a1d8184015281518083019092528782529181018390529450925061072c8484610736565b9150509250925092565b60006107406115fe565b6020848101805151835280518201519183019190915280516040908101519083015280516060908101519083015251608090810151908201526107816115fe565b6020858101805160a0908101518452815160c0015184840152815160e001516040808601919091528251610100015160608601529151610120015160808501528151908101909152865181526108069181016107dc8561100c565b81526020016107ea8461100c565b815260200186600001518152602001866020015181525061100c565b95945050505050565b600061083b7f000000000000000000000000000000000000000000000000000000000000000042611cbf565b60145490915060ff1615156001036108665760405163148fb9a960e31b815260040160405180910390fd5b600e54600c541061088a57604051631ec0b2f760e01b815260040160405180910390fd5b600c805460010190556013546040516323b872dd60e01b8152336004820152306024820152604481018490526001600160a01b03909116906323b872dd906064016020604051808303816000875af11580156108ea573d6000803e3d6000fd5b505050506040513d601f19601f8201168201806040525081019061090e9190611d01565b506040805180820190915283815260208101839052600080610931836002610688565b601254604051631ffc735d60e01b8152600481018390529395509093506001600160a01b031691631ffc735d91506024016020604051808303816000875af1158015610981573d6000803e3d6000fd5b505050506040513d601f19601f820116820180604052508101906109a59190611cd2565b507f935afc7bb7cc33eb3e24e20dcfc75f5b21fa58e9c82cca06435238efaf9a3a58826040516109d59190611d1e565b60405180910390a1505050505050565b6000610a117f000000000000000000000000000000000000000000000000000000000000000042611cbf565b60145490915060ff161515600103610a3c5760405163148fb9a960e31b815260040160405180910390fd5b600e54600c5410610a6057604051631ec0b2f760e01b815260040160405180910390fd5b7f30644e72e131a029b85045b68181585d2833e84879b9709143e1f593f00000018235101580610ab457507f30644e72e131a029b85045b68181585d2833e84879b9709143e1f593f0000001826020013510155b15610ad2576040516354be831760e11b815260040160405180910390fd5b600c8054600190810190915583526000610af58461028e36869003860186611d2d565b601254604051631ffc735d60e01b8152600481018390529192506001600160a01b031690631ffc735d906024016020604051808303816000875af1158015610b41573d6000803e3d6000fd5b505050506040513d601f19601f82011682018060405250810190610b659190611cd2565b507fe2067f06dd7b8159b21a5490f8663f6bb031d9b35ed6d298b5489674cb9cda4b8484604051610b97929190611d49565b60405180910390a150505050565b60405163248f667760e01b815260009073__$ce9c2c925f157047e54fa833ec4e61409f$__9063248f667790610bdf908590600401611d72565b602060405180830381865af4158015610bfc573d6000803e3d6000fd5b505050506040513d601f19601f82011682018060405250810190610c209190611cd2565b92915050565b60007f30644e72e131a029b85045b68181585d2833e84879b9709143e1f593f0000001600283604051602001610c5c9190611da3565b60408051601f1981840301815290829052610c7691611dd9565b602060405180830381855afa158015610c93573d6000803e3d6000fd5b5050506040513d601f19601f82011682018060405250810190610cb69190611cd2565b610c209190611e08565b6000610cca61161c565b83815260208101839052610cdd81610ce5565b949350505050565b6040516314d2f97b60e11b815260009073__$6574937f64fc1d7710ec0e28b7a36713bb$__906329a5f2f690610bdf908590600401611e2a565b610d27611516565b610d316000611570565b565b828114610d535760405163ca3487f760e01b815260040160405180910390fd5b8260005b81811015610db057610da8868683818110610d7457610d74611ceb565b90506101600201803603810190610d8b9190611e52565b858584818110610d9d57610d9d611ceb565b9050604002016109e5565b600101610d57565b505050505050565b6000610dc261163a565b8251518152825160209081015181830152830151816002602002015260408301516060820152610df181610ba5565b9392505050565b610e00611516565b6000610e2c7f000000000000000000000000000000000000000000000000000000000000000042611cbf565b60145490915060ff161515600003610e5757604051630931513d60e11b815260040160405180910390fd5b600a5460ff1615610e7b5760405163084ef7b960e41b815260040160405180910390fd5b60115460405163cfa1fa0360e01b815260048101859052602481018490526001600160a01b039091169063cfa1fa0390604401600060405180830381600087803b158015610ec857600080fd5b505af1158015610edc573d6000803e3d6000fd5b505050507fbe5eae95ff0a9a2779506ae62da06dda1e349311d3f2b6ceb990ea42b6a5f20b83604051610f1191815260200190565b60405180910390a1505050565b610f26611516565b6000610f527f000000000000000000000000000000000000000000000000000000000000000042611cbf565b60145490915060ff161515600003610f7d57604051630931513d60e11b815260040160405180910390fd5b60125460405163c15da65b60e01b8152600481018490526001600160a01b039091169063c15da65b90602401600060405180830381600087803b158015610fc357600080fd5b505af1158015610fd7573d6000803e3d6000fd5b505050507f1245b881cb30fdad22b2f9fde2d5c2a3605bbdf272d5e8a2235d8c9e81aba2ce8260405161067c91815260200190565b604051630926f44b60e31b815260009073__$20527677031d76601747626a9845039fe4$__90634937a25890610bdf908590600401611e6f565b61104e611516565b600061107a7f000000000000000000000000000000000000000000000000000000000000000042611cbf565b60145490915060ff1615156000036110a557604051630931513d60e11b815260040160405180910390fd5b600a5460ff16156110c95760405163084ef7b960e41b815260040160405180910390fd5b600a805460ff1916600117905560115460408051630c0775ff60e31b815290516001600160a01b039092169163603baff8916004808201926020929091908290030181865afa158015611120573d6000803e3d6000fd5b505050506040513d601f19601f820116820180604052508101906111449190611e97565b6001600160a01b031663b6a64acd6040518163ffffffff1660e01b8152600401602060405180830381865afa158015611181573d6000803e3d6000fd5b505050506040513d601f19601f820116820180604052508101906111a59190611d01565b6111c157604051624a03c360e31b815260040160405180910390fd5b60115460405163dd0982a360e01b8152600481018490526001600160a01b039091169063dd0982a3906024016020604051808303816000875af115801561120c573d6000803e3d6000fd5b505050506040513d601f19601f820116820180604052508101906112309190611cd2565b60095561123b611658565b600954815260105460019061125b9082906301000000900460ff16611eb4565b60ff166005811061126e5761126e611ceb565b015460208201526000604082015261128581611334565b600b556011546040805163122db15360e01b815290516001600160a01b039092169163122db153916004808201926020929091908290030181865afa1580156112d2573d6000803e3d6000fd5b505050506040513d601f19601f820116820180604052508101906112f69190611cd2565b600d8190556009546040517fa80928657383ff9d374f1409cf51e7460a64472b6baeb5ded1199830c15bae0192610f11928252602082015260400190565b6040516304b98e1d60e31b815260009073__$dc01a9744591ab014bc46a3b7671cdaefb$__906325cc70e890610bdf908590600401611ecd565b60065460ff1615611392576040516342a2e18d60e01b815260040160405180910390fd5b6006805460ff19166001908117909155600c805482019055604080518082019091527f12817f4161f2f5ded33f26c55735a77e80e4f8975483c8c2704745128417f71181526000602082018190529091819081906113f1908590610688565b601254604051631ffc735d60e01b81526004810183905293965091945092506001600160a01b031690631ffc735d906024016020604051808303816000875af1158015611442573d6000803e3d6000fd5b505050506040513d601f19601f820116820180604052508101906114669190611cd2565b507fe2067f06dd7b8159b21a5490f8663f6bb031d9b35ed6d298b5489674cb9cda4b8383604051610b97929190611ef5565b6114a0611516565b6001600160a01b03811661150a5760405162461bcd60e51b815260206004820152602660248201527f4f776e61626c653a206e6577206f776e657220697320746865207a65726f206160448201526564647265737360d01b60648201526084015b60405180910390fd5b61151381611570565b50565b6000546001600160a01b03163314610d315760405162461bcd60e51b815260206004820181905260248201527f4f776e61626c653a2063616c6c6572206973206e6f7420746865206f776e65726044820152606401611501565b600080546001600160a01b038381166001600160a01b0319831681178455604051919092169283917f8be0079c531659141344cd1fd0a4f28419497f9722a3daafe3b4186f6b6457e09190a35050565b6040518060400160405280600081526020016115da6115df565b905290565b604051806101400160405280600a906020820280368337509192915050565b6040518060a001604052806005906020820280368337509192915050565b60405180604001604052806002906020820280368337509192915050565b60405180608001604052806004906020820280368337509192915050565b60405180606001604052806003906020820280368337509192915050565b634e487b7160e01b600052604160045260246000fd5b6040805190810167ffffffffffffffff811182821017156116af576116af611676565b60405290565b604051601f8201601f1916810167ffffffffffffffff811182821017156116de576116de611676565b604052919050565b600082601f8301126116f757600080fd5b6040516040810181811067ffffffffffffffff8211171561171a5761171a611676565b806040525080604084018581111561173157600080fd5b845b8181101561174b578035835260209283019201611733565b509195945050505050565b6000806060838503121561176957600080fd5b61177384846116e6565b946040939093013593505050565b8051825260208082015181840160005b600a811015610db057825182529183019190830190600101611791565b6101c081016117bd8286611781565b83516101608301526020909301516101808201526101a00152919050565b60006101608083850312156117ef57600080fd5b6117f761168c565b915082358252602084603f85011261180e57600080fd5b604051610140810181811067ffffffffffffffff8211171561183257611832611676565b60405291840191808684111561184757600080fd5b8286015b84811015611862578035825290830190830161184b565b5050908301525092915050565b60006040828403121561188157600080fd5b61188961168c565b9050813581526020820135602082015292915050565b6000806101a083850312156118b357600080fd5b6118bd84846117db565b91506118cd84610160850161186f565b90509250929050565b600080604083850312156118e957600080fd5b50508035926020909101359150565b6000808284036101a081121561190d57600080fd5b61191785856117db565b9250604061015f198201121561192c57600080fd5b50610160830190509250929050565b60006080828403121561194d57600080fd5b82601f83011261195c57600080fd5b6040516080810181811067ffffffffffffffff8211171561197f5761197f611676565b60405280608084018581111561173157600080fd5b801515811461151357600080fd5b6000602082840312156119b457600080fd5b8135610df181611994565b600060208083850312156119d257600080fd5b823567ffffffffffffffff808211156119ea57600080fd5b818501915085601f8301126119fe57600080fd5b813581811115611a1057611a10611676565b8060051b9150611a218483016116b5565b8181529183018401918481019088841115611a3b57600080fd5b938501935b83851015611a5957843582529385019390850190611a40565b98975050505050505050565b600060408284031215611a7757600080fd5b610df183836116e6565b60008060008060408587031215611a9757600080fd5b843567ffffffffffffffff80821115611aaf57600080fd5b818701915087601f830112611ac357600080fd5b813581811115611ad257600080fd5b88602061016083028501011115611ae857600080fd5b602092830196509450908601359080821115611b0357600080fd5b818701915087601f830112611b1757600080fd5b813581811115611b2657600080fd5b8860208260061b8501011115611b3b57600080fd5b95989497505060200194505050565b600060808284031215611b5c57600080fd5b6040516060810181811067ffffffffffffffff82111715611b7f57611b7f611676565b604052611b8c848461186f565b815260408301356020820152606083013560408201528091505092915050565b600060208284031215611bbe57600080fd5b5035919050565b600060a08284031215611bd757600080fd5b82601f830112611be657600080fd5b60405160a0810181811067ffffffffffffffff82111715611c0957611c09611676565b6040528060a084018581111561173157600080fd5b600060608284031215611c3057600080fd5b82601f830112611c3f57600080fd5b6040516060810181811067ffffffffffffffff82111715611c6257611c62611676565b60405280606084018581111561173157600080fd5b6001600160a01b038116811461151357600080fd5b600060208284031215611c9e57600080fd5b8135610df181611c77565b634e487b7160e01b600052601160045260246000fd5b81810381811115610c2057610c20611ca9565b600060208284031215611ce457600080fd5b5051919050565b634e487b7160e01b600052603260045260246000fd5b600060208284031215611d1357600080fd5b8151610df181611994565b6101608101610c208284611781565b600060408284031215611d3f57600080fd5b610df1838361186f565b6101a08101611d588285611781565b823561016083015260208301356101808301529392505050565b60808101818360005b6004811015611d9a578151835260209283019290910190600101611d7b565b50505092915050565b815160009082906020808601845b83811015611dcd57815185529382019390820190600101611db1565b50929695505050505050565b6000825160005b81811015611dfa5760208186018101518583015201611de0565b506000920191825250919050565b600082611e2557634e487b7160e01b600052601260045260246000fd5b500690565b60408101818360005b6002811015611d9a578151835260209283019290910190600101611e33565b60006101608284031215611e6557600080fd5b610df183836117db565b60a08101818360005b6005811015611d9a578151835260209283019290910190600101611e78565b600060208284031215611ea957600080fd5b8151610df181611c77565b60ff8281168282160390811115610c2057610c20611ca9565b60608101818360005b6003811015611d9a578151835260209283019290910190600101611ed6565b6101a08101611f048285611781565b82516101608301526020830151610180830152610df156fea2646970667358221220cb10500d4d048caa02805f17de02b36f8a9e074187c8de02da41b5ee4942d6c764736f6c63430008110033",
  "libraries": {
    "PoseidonT3": "0x314773c7C42587d72801A47687CebD789b8BC363",
    "PoseidonT4": "0x0195247B6B2b78219A78865F85350543562eadbc",
    "PoseidonT5": "0xfad3e45dfe1f6e73fdd5e9426cc69752698337af",
    "PoseidonT6": "0xE4F8D0de10deE47C15e76F6B6760B689595a3cF0"
  },
  "devdoc": {
    "details": "Do not deploy this directly. Use PollFactory.deploy() which performs some checks on the Poll constructor arguments.",
    "kind": "dev",
    "methods": {
      "constructor": {
        "params": {
          "_coordinatorPubKey": "The coordinator's public key",
          "_duration": "The duration of the voting period, in seconds",
          "_extContracts": "The external contracts",
          "_maxValues": "The maximum number of messages and vote options",
          "_treeDepths": "The depths of the merkle trees"
        }
      },
      "getDeployTimeAndDuration()": {
        "returns": {
          "pollDeployTime": "The deployment timestamp",
          "pollDuration": "The duration of the poll"
        }
      },
      "hash2(uint256[2])": {
        "params": {
          "array": "An array of two uint256 elements."
        },
        "returns": {
          "result": "The Poseidon hash of the two elements."
        }
      },
      "hash3(uint256[3])": {
        "params": {
          "array": "An array of three uint256 elements."
        },
        "returns": {
          "result": "The Poseidon hash of the three elements."
        }
      },
      "hash4(uint256[4])": {
        "params": {
          "array": "An array of four uint256 elements."
        },
        "returns": {
          "result": "The Poseidon hash of the four elements."
        }
      },
      "hash5(uint256[5])": {
        "params": {
          "array": "An array of five uint256 elements."
        },
        "returns": {
          "result": "The Poseidon hash of the five elements."
        }
      },
      "hashLeftRight(uint256,uint256)": {
        "params": {
          "left": "the first element to hash.",
          "right": "the second element to hash."
        },
        "returns": {
          "result": "The Poseidon hash of the two elements."
        }
      },
      "hashMessageAndEncPubKey((uint256,uint256[10]),(uint256,uint256))": {
        "params": {
          "_encPubKey": "the encryption public key to be hashed",
          "_message": "the message to be hashed"
        },
        "returns": {
          "msgHash": "The hash of the message and the encryption public key"
        }
      },
      "hashStateLeaf(((uint256,uint256),uint256,uint256))": {
        "params": {
          "_stateLeaf": "the state leaf to be hashed"
        },
        "returns": {
          "ciphertext": "The hash of the state leaf"
        }
      },
      "init()": {
        "details": "Should be called immediately after Poll creation and messageAq ownership transferred"
      },
      "mergeMaciStateAq(uint256)": {
        "params": {
          "_pollId": "The ID of the active Poll"
        }
      },
      "mergeMaciStateAqSubRoots(uint256,uint256)": {
        "params": {
          "_numSrQueueOps": "Number of operations",
          "_pollId": "The ID of the active Poll"
        }
      },
      "mergeMessageAqSubRoots(uint256)": {
        "params": {
          "_numSrQueueOps": "The number of subroot queue operations to perform"
        }
      },
      "numSignUpsAndMessages()": {
        "returns": {
          "numMsgs": "The number of messages sent by voters",
          "numSUps": "The number of signups"
        }
      },
      "owner()": {
        "details": "Returns the address of the current owner."
      },
      "padAndHashMessage(uint256[2],uint256)": {
        "params": {
          "dataToPad": "the data to be padded",
          "msgType": "the type of the message"
        },
        "returns": {
          "message": "The padded message",
          "msgHash": "The hash of the padded message and encryption key",
          "padKey": "The padding public key"
        }
      },
      "publishMessage((uint256,uint256[10]),(uint256,uint256))": {
        "params": {
          "_encPubKey": "An epheremal public key which can be combined with the coordinator's private key to generate an ECDH shared key with which to encrypt the message.",
          "_message": "The message to publish"
        }
      },
      "publishMessageBatch((uint256,uint256[10])[],(uint256,uint256)[])": {
        "details": "Can only be submitted before the voting deadline",
        "params": {
          "_encPubKeys": "the encrypted public keys",
          "_messages": "the messages"
        }
      },
      "renounceOwnership()": {
        "details": "Leaves the contract without owner. It will not be possible to call `onlyOwner` functions anymore. Can only be called by the current owner. NOTE: Renouncing ownership will leave the contract without an owner, thereby removing any functionality that is only available to the owner."
      },
      "sha256Hash(uint256[])": {
        "params": {
          "array": "The array of uint256 elements."
        },
        "returns": {
          "result": "The SHA256 hash of the array."
        }
      },
      "topup(uint256,uint256)": {
        "params": {
          "amount": "The amount of credits to topup",
          "stateIndex": "The index of user in the state queue"
        }
      },
      "transferOwnership(address)": {
        "details": "Transfers ownership of the contract to a new account (`newOwner`). Can only be called by the current owner."
      }
    },
    "title": "Poll",
    "version": 1
  },
  "userdoc": {
    "errors": {
      "InvalidMessage()": [
        {
          "notice": "custom errors"
        }
      ]
    },
    "kind": "user",
    "methods": {
      "MESSAGE_DATA_LENGTH()": {
        "notice": "the length of a MACI message"
      },
      "constructor": {
        "notice": "Each MACI instance can have multiple Polls. When a Poll is deployed, its voting period starts immediately."
      },
      "coordinatorPubKey()": {
        "notice": "The coordinator's public key"
      },
      "coordinatorPubKeyHash()": {
        "notice": "Hash of the coordinator's public key"
      },
      "currentSbCommitment()": {
        "notice": "Get the commitment to the state leaves and the ballots. This is hash3(stateRoot, ballotRoot, salt). Its initial value should be hash(maciStateRootSnapshot, emptyBallotRoot, 0) Each successful invocation of processMessages() should use a different salt to update this value, so that an external observer cannot tell in the case that none of the messages are valid."
      },
      "extContracts()": {
        "notice": "The contracts used by the Poll"
      },
      "getDeployTimeAndDuration()": {
        "notice": "Returns the Poll's deploy time and duration"
      },
      "hash2(uint256[2])": {
        "notice": "Computes the Poseidon hash of two uint256 elements."
      },
      "hash3(uint256[3])": {
        "notice": "Computes the Poseidon hash of three uint256 elements."
      },
      "hash4(uint256[4])": {
        "notice": "Computes the Poseidon hash of four uint256 elements."
      },
      "hash5(uint256[5])": {
        "notice": "Computes the Poseidon hash of five uint256 elements."
      },
      "hashLeftRight(uint256,uint256)": {
        "notice": "Computes the Poseidon hash of two uint256 elements."
      },
      "hashMessageAndEncPubKey((uint256,uint256[10]),(uint256,uint256))": {
        "notice": "An utility function used to hash a MACI message and an encryption public key"
      },
      "hashStateLeaf(((uint256,uint256),uint256,uint256))": {
        "notice": "An utility function used to hash a state leaf"
      },
      "init()": {
        "notice": "The initialization function."
      },
      "maxValues()": {
        "notice": "Max values for the poll"
      },
      "mergeMaciStateAq(uint256)": {
        "notice": "The second step of merging the MACI state AccQueue. This allows the ProcessMessages circuit to access the latest state tree and ballots via currentSbCommitment."
      },
      "mergeMaciStateAqSubRoots(uint256,uint256)": {
        "notice": "The first step of merging the MACI state AccQueue. This allows the ProcessMessages circuit to access the latest state tree and ballots via currentSbCommitment."
      },
      "mergeMessageAq()": {
        "notice": "The second step in merging the message AccQueue so that the ProcessMessages circuit can access the message root."
      },
      "mergeMessageAqSubRoots(uint256)": {
        "notice": "The first step in merging the message AccQueue so that the ProcessMessages circuit can access the message root."
      },
      "mergedStateRoot()": {
        "notice": "the state root of the state merkle tree"
      },
      "numMessages()": {
        "notice": "The number of messages that have been published"
      },
      "numSignUpsAndMessages()": {
        "notice": "The number of messages which have been processed and the number of signups"
      },
      "numSignups()": {
        "notice": "The number of signups that have been processed before the Poll ended (stateAq merged)"
      },
      "padAndHashMessage(uint256[2],uint256)": {
        "notice": "An utility function used to pad and hash a MACI message"
      },
      "publishMessage((uint256,uint256[10]),(uint256,uint256))": {
        "notice": "Allows anyone to publish a message (an encrypted command and signature). This function also enqueues the message."
      },
      "publishMessageBatch((uint256,uint256[10])[],(uint256,uint256)[])": {
        "notice": "submit a message batch"
      },
      "sha256Hash(uint256[])": {
        "notice": "Computes the SHA256 hash of an array of uint256 elements."
      },
      "stateAqMerged()": {
        "notice": "Whether the MACI contract's stateAq has been merged by this contract"
      },
      "topup(uint256,uint256)": {
        "notice": "Allows to publish a Topup message"
      },
      "treeDepths()": {
        "notice": "Depths of the merkle trees"
      }
    },
    "notice": "A Poll contract allows voters to submit encrypted messages which can be either votes, key change messages or topup messages.",
    "version": 1
  },
  "storageLayout": {
    "storage": [
      {
        "astId": 7,
        "contract": "contracts/Poll.sol:Poll",
        "label": "_owner",
        "offset": 0,
        "slot": "0",
        "type": "t_address"
      },
      {
        "astId": 4511,
        "contract": "contracts/Poll.sol:Poll",
        "label": "emptyBallotRoots",
        "offset": 0,
        "slot": "1",
        "type": "t_array(t_uint256)5_storage"
      },
      {
        "astId": 1509,
        "contract": "contracts/Poll.sol:Poll",
        "label": "isInit",
        "offset": 0,
        "slot": "6",
        "type": "t_bool"
      },
      {
        "astId": 1513,
        "contract": "contracts/Poll.sol:Poll",
        "label": "coordinatorPubKey",
        "offset": 0,
        "slot": "7",
        "type": "t_struct(PubKey)4888_storage"
      },
      {
        "astId": 1519,
        "contract": "contracts/Poll.sol:Poll",
        "label": "mergedStateRoot",
        "offset": 0,
        "slot": "9",
        "type": "t_uint256"
      },
      {
        "astId": 1526,
        "contract": "contracts/Poll.sol:Poll",
        "label": "stateAqMerged",
        "offset": 0,
        "slot": "10",
        "type": "t_bool"
      },
      {
        "astId": 1529,
        "contract": "contracts/Poll.sol:Poll",
        "label": "currentSbCommitment",
        "offset": 0,
        "slot": "11",
        "type": "t_uint256"
      },
      {
        "astId": 1532,
        "contract": "contracts/Poll.sol:Poll",
        "label": "numMessages",
        "offset": 0,
        "slot": "12",
        "type": "t_uint256"
      },
      {
        "astId": 1535,
        "contract": "contracts/Poll.sol:Poll",
        "label": "numSignups",
        "offset": 0,
        "slot": "13",
        "type": "t_uint256"
      },
      {
        "astId": 1539,
        "contract": "contracts/Poll.sol:Poll",
        "label": "maxValues",
        "offset": 0,
        "slot": "14",
        "type": "t_struct(MaxValues)4920_storage"
      },
      {
        "astId": 1543,
        "contract": "contracts/Poll.sol:Poll",
        "label": "treeDepths",
        "offset": 0,
        "slot": "16",
        "type": "t_struct(TreeDepths)4915_storage"
      },
      {
        "astId": 1547,
        "contract": "contracts/Poll.sol:Poll",
        "label": "extContracts",
        "offset": 0,
        "slot": "17",
        "type": "t_struct(ExtContracts)4930_storage"
      },
      {
        "astId": 1550,
        "contract": "contracts/Poll.sol:Poll",
        "label": "finished",
        "offset": 0,
        "slot": "20",
        "type": "t_bool"
      }
    ],
    "types": {
      "t_address": {
        "encoding": "inplace",
        "label": "address",
        "numberOfBytes": "20"
      },
      "t_array(t_uint256)5_storage": {
        "base": "t_uint256",
        "encoding": "inplace",
        "label": "uint256[5]",
        "numberOfBytes": "160"
      },
      "t_bool": {
        "encoding": "inplace",
        "label": "bool",
        "numberOfBytes": "1"
      },
      "t_contract(AccQueue)4192": {
        "encoding": "inplace",
        "label": "contract AccQueue",
        "numberOfBytes": "20"
      },
      "t_contract(IMACI)3028": {
        "encoding": "inplace",
        "label": "contract IMACI",
        "numberOfBytes": "20"
      },
      "t_contract(TopupCredit)2368": {
        "encoding": "inplace",
        "label": "contract TopupCredit",
        "numberOfBytes": "20"
      },
      "t_struct(ExtContracts)4930_storage": {
        "encoding": "inplace",
        "label": "struct Params.ExtContracts",
        "members": [
          {
            "astId": 4923,
            "contract": "contracts/Poll.sol:Poll",
            "label": "maci",
            "offset": 0,
            "slot": "0",
            "type": "t_contract(IMACI)3028"
          },
          {
            "astId": 4926,
            "contract": "contracts/Poll.sol:Poll",
            "label": "messageAq",
            "offset": 0,
            "slot": "1",
            "type": "t_contract(AccQueue)4192"
          },
          {
            "astId": 4929,
            "contract": "contracts/Poll.sol:Poll",
            "label": "topupCredit",
            "offset": 0,
            "slot": "2",
            "type": "t_contract(TopupCredit)2368"
          }
        ],
        "numberOfBytes": "96"
      },
      "t_struct(MaxValues)4920_storage": {
        "encoding": "inplace",
        "label": "struct Params.MaxValues",
        "members": [
          {
            "astId": 4917,
            "contract": "contracts/Poll.sol:Poll",
            "label": "maxMessages",
            "offset": 0,
            "slot": "0",
            "type": "t_uint256"
          },
          {
            "astId": 4919,
            "contract": "contracts/Poll.sol:Poll",
            "label": "maxVoteOptions",
            "offset": 0,
            "slot": "1",
            "type": "t_uint256"
          }
        ],
        "numberOfBytes": "64"
      },
      "t_struct(PubKey)4888_storage": {
        "encoding": "inplace",
        "label": "struct DomainObjs.PubKey",
        "members": [
          {
            "astId": 4885,
            "contract": "contracts/Poll.sol:Poll",
            "label": "x",
            "offset": 0,
            "slot": "0",
            "type": "t_uint256"
          },
          {
            "astId": 4887,
            "contract": "contracts/Poll.sol:Poll",
            "label": "y",
            "offset": 0,
            "slot": "1",
            "type": "t_uint256"
          }
        ],
        "numberOfBytes": "64"
      },
      "t_struct(TreeDepths)4915_storage": {
        "encoding": "inplace",
        "label": "struct Params.TreeDepths",
        "members": [
          {
            "astId": 4908,
            "contract": "contracts/Poll.sol:Poll",
            "label": "intStateTreeDepth",
            "offset": 0,
            "slot": "0",
            "type": "t_uint8"
          },
          {
            "astId": 4910,
            "contract": "contracts/Poll.sol:Poll",
            "label": "messageTreeSubDepth",
            "offset": 1,
            "slot": "0",
            "type": "t_uint8"
          },
          {
            "astId": 4912,
            "contract": "contracts/Poll.sol:Poll",
            "label": "messageTreeDepth",
            "offset": 2,
            "slot": "0",
            "type": "t_uint8"
          },
          {
            "astId": 4914,
            "contract": "contracts/Poll.sol:Poll",
            "label": "voteOptionTreeDepth",
            "offset": 3,
            "slot": "0",
            "type": "t_uint8"
          }
        ],
        "numberOfBytes": "32"
      },
      "t_uint256": {
        "encoding": "inplace",
        "label": "uint256",
        "numberOfBytes": "32"
      },
      "t_uint8": {
        "encoding": "inplace",
        "label": "uint8",
        "numberOfBytes": "1"
      }
    }
  }
}