{
  "address": "0x324568eB61369C037B67c0d994cdb2D1ebBabea2",
  "abi": [
    {
      "inputs": [
        {
          "internalType": "uint256[8]",
          "name": "",
          "type": "uint256[8]"
        },
        {
          "components": [
            {
              "components": [
                {
                  "internalType": "uint256",
                  "name": "x",
                  "type": "uint256"
                },
                {
                  "internalType": "uint256",
                  "name": "y",
                  "type": "uint256"
                }
              ],
              "internalType": "struct Pairing.G1Point",
              "name": "alpha1",
              "type": "tuple"
            },
            {
              "components": [
                {
                  "internalType": "uint256[2]",
                  "name": "x",
                  "type": "uint256[2]"
                },
                {
                  "internalType": "uint256[2]",
                  "name": "y",
                  "type": "uint256[2]"
                }
              ],
              "internalType": "struct Pairing.G2Point",
              "name": "beta2",
              "type": "tuple"
            },
            {
              "components": [
                {
                  "internalType": "uint256[2]",
                  "name": "x",
                  "type": "uint256[2]"
                },
                {
                  "internalType": "uint256[2]",
                  "name": "y",
                  "type": "uint256[2]"
                }
              ],
              "internalType": "struct Pairing.G2Point",
              "name": "gamma2",
              "type": "tuple"
            },
            {
              "components": [
                {
                  "internalType": "uint256[2]",
                  "name": "x",
                  "type": "uint256[2]"
                },
                {
                  "internalType": "uint256[2]",
                  "name": "y",
                  "type": "uint256[2]"
                }
              ],
              "internalType": "struct Pairing.G2Point",
              "name": "delta2",
              "type": "tuple"
            },
            {
              "components": [
                {
                  "internalType": "uint256",
                  "name": "x",
                  "type": "uint256"
                },
                {
                  "internalType": "uint256",
                  "name": "y",
                  "type": "uint256"
                }
              ],
              "internalType": "struct Pairing.G1Point[]",
              "name": "ic",
              "type": "tuple[]"
            }
          ],
          "internalType": "struct SnarkCommon.VerifyingKey",
          "name": "",
          "type": "tuple"
        },
        {
          "internalType": "uint256",
          "name": "",
          "type": "uint256"
        }
      ],
      "name": "verify",
      "outputs": [
        {
          "internalType": "bool",
          "name": "result",
          "type": "bool"
        }
      ],
      "stateMutability": "pure",
      "type": "function"
    }
  ],
  "transactionHash": "0x3255fbb9494236df59c2ccf23ec4a7322b1ff393a3325a9907eedf2b970fc4d5",
  "args": [],
  "numDeployments": 1,
  "solcInputHash": "43b0cf0d58ff20ad1ac37b71c168ebf9",
  "bytecode": "0x608060405234801561001057600080fd5b506103c2806100206000396000f3fe608060405234801561001057600080fd5b506004361061002b5760003560e01c806322b72c9414610030575b600080fd5b61004761003e36600461022f565b50600192915050565b604051901515815260200160405180910390f35b634e487b7160e01b600052604160045260246000fd5b6040805190810167ffffffffffffffff811182821017156100945761009461005b565b60405290565b60405160a0810167ffffffffffffffff811182821017156100945761009461005b565b604051601f8201601f1916810167ffffffffffffffff811182821017156100e6576100e661005b565b604052919050565b600060405161010080820182811067ffffffffffffffff821117156101155761011561005b565b604052909150819083018481111561012c57600080fd5b835b8181101561014657803583526020928301920161012e565b50505092915050565b60006040828403121561016157600080fd5b610169610071565b9050813581526020820135602082015292915050565b600082601f83011261019057600080fd5b6040516040810181811067ffffffffffffffff821117156101b3576101b361005b565b80604052508060408401858111156101ca57600080fd5b845b818110156101e45780358352602092830192016101cc565b509195945050505050565b60006080828403121561020157600080fd5b610209610071565b9050610215838361017f565b8152610224836040840161017f565b602082015292915050565b600080600061014080858703121561024657600080fd5b85601f86011261025557600080fd5b61025f86866100ee565b935061010085013567ffffffffffffffff8082111561027d57600080fd5b908601906101e0828903121561029257600080fd5b61029a61009a565b6102a4898461014f565b815260406102b48a8286016101ef565b602081818501526102c88c60c088016101ef565b838501526102d88c8888016101ef565b60608501526101c08601359650848711156102f257600080fd5b86860196508b601f88011261030657600080fd5b863595508486111561031a5761031a61005b565b610328818760051b016100bd565b86815260069690961b8701810195818101955091508b86111561034a57600080fd5b958601955b85871015610370576103618c8861014f565b8552958201959384019361034f565b506080830152509598959750505050610120939093013592505056fea26469706673582212200df9264fd7f93a03cbfd70271cdae93fdee0132f67fc1d4ad1f3aaffb5f6b5ab64736f6c63430008110033",
  "devdoc": {
    "kind": "dev",
    "methods": {
      "verify(uint256[8],((uint256,uint256),(uint256[2],uint256[2]),(uint256[2],uint256[2]),(uint256[2],uint256[2]),(uint256,uint256)[]),uint256)": {
        "returns": {
          "result": "Whether the proof is valid given the verifying key and public"
        }
      }
    },
    "title": "MockVerifier",
    "version": 1
  },
  "userdoc": {
    "kind": "user",
    "methods": {
      "verify(uint256[8],((uint256,uint256),(uint256[2],uint256[2]),(uint256[2],uint256[2]),(uint256[2],uint256[2]),(uint256,uint256)[]),uint256)": {
        "notice": "Verify a zk-SNARK proof (test only return always true)"
      }
    },
    "notice": "a MockVerifier to be used for testing",
    "version": 1
  },
  "storageLayout": {
    "storage": [],
    "types": null
  }
}